:060000000A128A11122809
:10000800FE00030EF0000408F1000A08F200831253
:1000180003137F08F3000A128A1132280A128A1180
:10002800152883010A128A1147287F308316031383
:100038008F0087140715273092000F30831203139F
:100048009700143095008C1092018B1383160313BC
:100058008C140B178312031312150800831603134D
:100068008C1C3B28831203138C1C3B288C107308B0
:100078008312FF0072088A0071088400700E8300E2
:10008800FE0E7E0E09000A128A1119200A128A1120
:0A0098008316031387100711502888
:04400E00C2E4FFFF0A
:00000001FF
